{
  "contractName": "StringBytes32Util",
  "abi": [
    {
      "constant": true,
      "inputs": [
        {
          "name": "stringData",
          "type": "string"
        }
      ],
      "name": "stringToBytes32Tuple",
      "outputs": [
        {
          "name": "",
          "type": "bytes32"
        },
        {
          "name": "",
          "type": "bytes32"
        }
      ],
      "payable": false,
      "stateMutability": "pure",
      "type": "function",
      "signature": "0x54f35dab"
    },
    {
      "constant": true,
      "inputs": [
        {
          "name": "one",
          "type": "bytes32"
        },
        {
          "name": "two",
          "type": "bytes32"
        }
      ],
      "name": "bytes32TupleToString",
      "outputs": [
        {
          "name": "",
          "type": "string"
        }
      ],
      "payable": false,
      "stateMutability": "pure",
      "type": "function",
      "signature": "0x450a4cff"
    }
  ],
  "bytecode": "0x608060405234801561001057600080fd5b506106ce806100206000396000f30060806040526004361061004c576000357c0100000000000000000000000000000000000000000000000000000000900463ffffffff168063450a4cff1461005157806354f35dab14610109575b600080fd5b34801561005d57600080fd5b5061008e6004803603810190808035600019169060200190929190803560001916906020019092919050505061019d565b6040518080602001828103825283818151815260200191508051906020019080838360005b838110156100ce5780820151818401526020810190506100b3565b50505050905090810190601f1680156100fb5780820380516001836020036101000a031916815260200191505b509250505060405180910390f35b34801561011557600080fd5b50610170600480360381019080803590602001908201803590602001908080601f01602080910402602001604051908101604052809392919081815260200183838082843782019150505050505091929192905050506101c1565b60405180836000191660001916815260200182600019166000191681526020019250505060405180910390f35b60606101b96101ab846101e9565b6101b4846101e9565b6103e5565b905092915050565b60008060608390506101d48160006105b6565b6101df8260206105b6565b9250925050915091565b6060806000806000606060206040519080825280601f01601f1916602001820160405280156102275781602001602082028038833980820191505090505b50945060009350600092505b60208310156102f1578260080260020a876001900402600102915060007f010000000000000000000000000000000000000000000000000000000000000002827effffffffffffffffffffffffffffffffffffffffffffffffffffffffffffff19161415156102e4578185858151811015156102ab57fe5b9060200101907effffffffffffffffffffffffffffffffffffffffffffffffffffffffffffff1916908160001a90535083806001019450505b8280600101935050610233565b836040519080825280601f01601f1916602001820160405280156103245781602001602082028038833980820191505090505b509050600092505b838310156103d857848381518110151561034257fe5b9060200101517f010000000000000000000000000000000000000000000000000000000000000090047f010000000000000000000000000000000000000000000000000000000000000002818481518110151561039b57fe5b9060200101907effffffffffffffffffffffffffffffffffffffffffffffffffffffffffffff1916908160001a905350828060010193505061032c565b8095505050505050919050565b606080606080606060008088955087945084518651016040519080825280601f01601f19166020018201604052801561042d5781602001602082028038833980820191505090505b50935083925060009150600090505b85518110156104ef57858181518110151561045357fe5b9060200101517f010000000000000000000000000000000000000000000000000000000000000090047f01000000000000000000000000000000000000000000000000000000000000000283838060010194508151811015156104b257fe5b9060200101907effffffffffffffffffffffffffffffffffffffffffffffffffffffffffffff1916908160001a905350808060010191505061043c565b600090505b84518110156105a757848181518110151561050b57fe5b9060200101517f010000000000000000000000000000000000000000000000000000000000000090047f010000000000000000000000000000000000000000000000000000000000000002838380600101945081518110151561056a57fe5b9060200101907effffffffffffffffffffffffffffffffffffffffffffffffffffffffffffff1916908160001a90535080806001019150506104f4565b82965050505050505092915050565b60008060008090505b6020811080156105d157508451818501105b15610697576008810260ff7f0100000000000000000000000000000000000000000000000000000000000000028683870181518110151561060e57fe5b9060200101517f010000000000000000000000000000000000000000000000000000000000000090047f010000000000000000000000000000000000000000000000000000000000000002167effffffffffffffffffffffffffffffffffffffffffffffffffffffffffffff1916600019169060020a90048217915080806001019150506105bf565b8192505050929150505600a165627a7a72305820dfac4c050b829edb05265b7190f5932500679543ecc7032c59895a4a429af6e00029",
  "source": "pragma solidity ^0.4.24;\ncontract StringBytes32Util {\n    \n    function stringToBytes32Tuple(string stringData) public pure returns (bytes32, bytes32) {\n        bytes memory totalMemory = bytes(stringData);\n        return (bytesToBytes32(totalMemory, 0), bytesToBytes32(totalMemory, 32));\n    }\n    \n    function bytes32TupleToString(bytes32 one, bytes32 two) public pure returns (string) {\n        return strConcat(bytes32ToString(one), bytes32ToString(two));\n    }\n    \n    function bytesToBytes32(bytes b, uint offset) private pure returns (bytes32) {\n        bytes32 out;\n        for (uint i = 0; i < 32 && offset + i < b.length; i++) {\n            out |= bytes32(b[offset + i] & 0xFF) >> (i * 8);\n        }\n         return out;\n    }\n    \n    function bytes32ToString(bytes32 x) private pure returns (string) {\n        bytes memory bytesString = new bytes(32);\n        uint charCount = 0;\n        for (uint j = 0; j < 32; j++) {\n            byte char = byte(bytes32(uint(x) * 2 ** (8 * j)));\n            if (char != 0) {\n                bytesString[charCount] = char;\n                charCount++;\n            }\n        }\n        bytes memory bytesStringTrimmed = new bytes(charCount);\n        for (j = 0; j < charCount; j++) {\n            bytesStringTrimmed[j] = bytesString[j];\n        }\n        return string(bytesStringTrimmed);\n    }\n    \n    function strConcat(string _a, string _b) private pure returns (string) {\n        bytes memory _ba = bytes(_a);\n        bytes memory _bb = bytes(_b);\n        string memory ab = new string(_ba.length + _bb.length);\n        bytes memory bab = bytes(ab);\n        uint k = 0;\n        for (uint i = 0; i < _ba.length; i++) bab[k++] = _ba[i];\n        for (i = 0; i < _bb.length; i++) bab[k++] = _bb[i];\n        return string(bab);\n    }\n    \n}\n",
  "sourcePath": "/home/cameron/CYRCUS/web-app/contracts/StringBytes32Util.sol",
  "compiler": {
    "name": "solc",
    "version": "0.4.25+commit.59dbf8f1.Emscripten.clang"
  },
  "schemaVersion": "3.0.0-beta.1",
  "updatedAt": "2018-11-15T02:56:33.072Z"
}