{
  "contractName": "UserContentRegister",
  "abi": [
    {
      "constant": true,
      "inputs": [],
      "name": "numUsers",
      "outputs": [
        {
          "name": "",
          "type": "uint256"
        }
      ],
      "payable": false,
      "stateMutability": "view",
      "type": "function",
      "signature": "0x19a50f49"
    },
    {
      "constant": true,
      "inputs": [
        {
          "name": "",
          "type": "address"
        }
      ],
      "name": "registered",
      "outputs": [
        {
          "name": "",
          "type": "bool"
        }
      ],
      "payable": false,
      "stateMutability": "view",
      "type": "function",
      "signature": "0xb2dd5c07"
    },
    {
      "constant": true,
      "inputs": [
        {
          "name": "",
          "type": "address"
        }
      ],
      "name": "userIndex",
      "outputs": [
        {
          "name": "userName",
          "type": "string"
        },
        {
          "name": "profileMetaData",
          "type": "string"
        },
        {
          "name": "numContent",
          "type": "uint256"
        }
      ],
      "payable": false,
      "stateMutability": "view",
      "type": "function",
      "signature": "0xc96679fe"
    },
    {
      "inputs": [
        {
          "name": "stringBytes32UtilAddress",
          "type": "address"
        }
      ],
      "payable": false,
      "stateMutability": "nonpayable",
      "type": "constructor",
      "signature": "constructor"
    },
    {
      "constant": false,
      "inputs": [
        {
          "name": "userName",
          "type": "string"
        },
        {
          "name": "metaData",
          "type": "string"
        }
      ],
      "name": "registerNewUser",
      "outputs": [
        {
          "name": "",
          "type": "bool"
        }
      ],
      "payable": false,
      "stateMutability": "nonpayable",
      "type": "function",
      "signature": "0x2588b0c9"
    },
    {
      "constant": true,
      "inputs": [
        {
          "name": "userName",
          "type": "string"
        }
      ],
      "name": "getUserAddress",
      "outputs": [
        {
          "name": "",
          "type": "address"
        }
      ],
      "payable": false,
      "stateMutability": "view",
      "type": "function",
      "signature": "0x4985e85c"
    },
    {
      "constant": true,
      "inputs": [
        {
          "name": "whichUser",
          "type": "address"
        }
      ],
      "name": "getNumContent",
      "outputs": [
        {
          "name": "",
          "type": "uint256"
        }
      ],
      "payable": false,
      "stateMutability": "view",
      "type": "function",
      "signature": "0xfa21dc12"
    },
    {
      "constant": false,
      "inputs": [
        {
          "name": "content",
          "type": "string"
        }
      ],
      "name": "publishContent",
      "outputs": [],
      "payable": false,
      "stateMutability": "nonpayable",
      "type": "function",
      "signature": "0x3dccafc4"
    },
    {
      "constant": false,
      "inputs": [
        {
          "name": "contentIndex",
          "type": "uint256"
        },
        {
          "name": "links",
          "type": "string"
        }
      ],
      "name": "updateContentLinks",
      "outputs": [],
      "payable": false,
      "stateMutability": "nonpayable",
      "type": "function",
      "signature": "0x8e897be4"
    },
    {
      "constant": false,
      "inputs": [
        {
          "name": "newUsername",
          "type": "string"
        }
      ],
      "name": "updateMyUserName",
      "outputs": [],
      "payable": false,
      "stateMutability": "nonpayable",
      "type": "function",
      "signature": "0x46ca7371"
    },
    {
      "constant": false,
      "inputs": [
        {
          "name": "_metaData",
          "type": "string"
        }
      ],
      "name": "updateMetaData",
      "outputs": [],
      "payable": false,
      "stateMutability": "nonpayable",
      "type": "function",
      "signature": "0x5cc07505"
    },
    {
      "constant": true,
      "inputs": [
        {
          "name": "username",
          "type": "string"
        }
      ],
      "name": "checkUserNameTaken",
      "outputs": [
        {
          "name": "",
          "type": "bool"
        }
      ],
      "payable": false,
      "stateMutability": "view",
      "type": "function",
      "signature": "0x88f4cdfb"
    },
    {
      "constant": true,
      "inputs": [
        {
          "name": "whichUser",
          "type": "address"
        },
        {
          "name": "index",
          "type": "uint256"
        }
      ],
      "name": "getUserContent",
      "outputs": [
        {
          "name": "content",
          "type": "string"
        }
      ],
      "payable": false,
      "stateMutability": "view",
      "type": "function",
      "signature": "0x368ada4c"
    },
    {
      "constant": true,
      "inputs": [
        {
          "name": "whichUser",
          "type": "address"
        },
        {
          "name": "index",
          "type": "uint256"
        }
      ],
      "name": "getUserContentBytes",
      "outputs": [
        {
          "name": "",
          "type": "bytes32"
        },
        {
          "name": "",
          "type": "bytes32"
        }
      ],
      "payable": false,
      "stateMutability": "view",
      "type": "function",
      "signature": "0x174a03f3"
    },
    {
      "constant": true,
      "inputs": [
        {
          "name": "whichUser",
          "type": "address"
        },
        {
          "name": "index",
          "type": "uint256"
        }
      ],
      "name": "getContentLinks",
      "outputs": [
        {
          "name": "",
          "type": "string"
        }
      ],
      "payable": false,
      "stateMutability": "view",
      "type": "function",
      "signature": "0x965f5aa6"
    }
  ],
  "bytecode": "0x608060405234801561001057600080fd5b506040516020806119858339810180604052810190808051906020019092919050505080600560006101000a81548173ffffffffffffffffffffffffffffffffffffffff021916908373ffffffffffffffffffffffffffffffffffffffff16021790555050611901806100846000396000f3006080604052600436106100d0576000357c0100000000000000000000000000000000000000000000000000000000900463ffffffff168063174a03f3146100d557806319a50f491461014d5780632588b0c914610178578063368ada4c1461023f5780633dccafc41461030557806346ca73711461036e5780634985e85c146103d75780635cc075051461048057806388f4cdfb146104e95780638e897be41461056a578063965f5aa6146105dd578063b2dd5c07146106a3578063c96679fe146106fe578063fa21dc121461082d575b600080fd5b3480156100e157600080fd5b50610120600480360381019080803573ffffffffffffffffffffffffffffffffffffffff16906020019092919080359060200190929190505050610884565b60405180836000191660001916815260200182600019166000191681526020019250505060405180910390f35b34801561015957600080fd5b50610162610a3a565b6040518082815260200191505060405180910390f35b34801561018457600080fd5b50610225600480360381019080803590602001908201803590602001908080601f0160208091040260200160405190810160405280939291908181526020018383808284378201915050505050509192919290803590602001908201803590602001908080601f0160208091040260200160405190810160405280939291908181526020018383808284378201915050505050509192919290505050610a40565b604051808215151515815260200191505060405180910390f35b34801561024b57600080fd5b5061028a600480360381019080803573ffffffffffffffffffffffffffffffffffffffff16906020019092919080359060200190929190505050610d64565b6040518080602001828103825283818151815260200191508051906020019080838360005b838110156102ca5780820151818401526020810190506102af565b50505050905090810190601f1680156102f75780820380516001836020036101000a031916815260200191505b509250505060405180910390f35b34801561031157600080fd5b5061036c600480360381019080803590602001908201803590602001908080601f0160208091040260200160405190810160405280939291908181526020018383808284378201915050505050509192919290505050610e59565b005b34801561037a57600080fd5b506103d5600480360381019080803590602001908201803590602001908080601f0160208091040260200160405190810160405280939291908181526020018383808284378201915050505050509192919290505050610faa565b005b3480156103e357600080fd5b5061043e600480360381019080803590602001908201803590602001908080601f0160208091040260200160405190810160405280939291908181526020018383808284378201915050505050509192919290505050611226565b604051808273ffffffffffffffffffffffffffffffffffffffff1673ffffffffffffffffffffffffffffffffffffffff16815260200191505060405180910390f35b34801561048c57600080fd5b506104e7600480360381019080803590602001908201803590602001908080601f01602080910402602001604051908101604052809392919081815260200183838082843782019150505050505091929192905050506112bb565b005b3480156104f557600080fd5b50610550600480360381019080803590602001908201803590602001908080601f0160208091040260200160405190810160405280939291908181526020018383808284378201915050505050509192919290505050611367565b604051808215151515815260200191505060405180910390f35b34801561057657600080fd5b506105db60048036038101908080359060200190929190803590602001908201803590602001908080601f01602080910402602001604051908101604052809392919081815260200183838082843782019150505050505091929192905050506113e9565b005b3480156105e957600080fd5b50610628600480360381019080803573ffffffffffffffffffffffffffffffffffffffff169060200190929190803590602001909291905050506114f6565b6040518080602001828103825283818151815260200191508051906020019080838360005b8381101561066857808201518184015260208101905061064d565b50505050905090810190601f1680156106955780820380516001836020036101000a031916815260200191505b509250505060405180910390f35b3480156106af57600080fd5b506106e4600480360381019080803573ffffffffffffffffffffffffffffffffffffffff1690602001909291905050506115eb565b604051808215151515815260200191505060405180910390f35b34801561070a57600080fd5b5061073f600480360381019080803573ffffffffffffffffffffffffffffffffffffffff16906020019092919050505061160b565b604051808060200180602001848152602001838103835286818151815260200191508051906020019080838360005b8381101561078957808201518184015260208101905061076e565b50505050905090810190601f1680156107b65780820380516001836020036101000a031916815260200191505b50838103825285818151815260200191508051906020019080838360005b838110156107ef5780820151818401526020810190506107d4565b50505050905090810190601f16801561081c5780820380516001836020036101000a031916815260200191505b509550505050505060405180910390f35b34801561083957600080fd5b5061086e600480360381019080803573ffffffffffffffffffffffffffffffffffffffff169060200190929190505050611765565b6040518082815260200191505060405180910390f35b600080600560009054906101000a900473ffffffffffffffffffffffffffffffffffffffff1673ffffffffffffffffffffffffffffffffffffffff166354f35dab6000808773ffffffffffffffffffffffffffffffffffffffff1673ffffffffffffffffffffffffffffffffffffffff16815260200190815260200160002060030160008681526020019081526020016000206040518263ffffffff167c010000000000000000000000000000000000000000000000000000000002815260040180806020018281038252838181546001816001161561010002031660029004815260200191508054600181600116156101000203166002900480156109cb5780601f106109a0576101008083540402835291602001916109cb565b820191906000526020600020905b8154815290600101906020018083116109ae57829003601f168201915b5050925050506040805180830381600087803b1580156109ea57600080fd5b505af11580156109fe573d6000803e3d6000fd5b505050506040513d6040811015610a1457600080fd5b810190808051906020019092919080519060200190929190505050915091509250929050565b60035481565b6000600160003373ffffffffffffffffffffffffffffffffffffffff1673ffffffffffffffffffffffffffffffffffffffff16815260200190815260200160002060009054906101000a900460ff16158015610b1257506004836040518082805190602001908083835b602083101515610acf5780518252602082019150602081019050602083039250610aaa565b6001836020036101000a038019825116818451168082178552505050505050905001915050908152602001604051809103902060009054906101000a900460ff16155b15610d595760606040519081016040528084815260200183815260200160008152506000803373ffffffffffffffffffffffffffffffffffffffff1673ffffffffffffffffffffffffffffffffffffffff1681526020019081526020016000206000820151816000019080519060200190610b8e9291906117b0565b506020820151816001019080519060200190610bab9291906117b0565b506040820151816002015590505060016004846040518082805190602001908083835b602083101515610bf35780518252602082019150602081019050602083039250610bce565b6001836020036101000a038019825116818451168082178552505050505050905001915050908152602001604051809103902060006101000a81548160ff02191690831515021790555060018060003373ffffffffffffffffffffffffffffffffffffffff1673ffffffffffffffffffffffffffffffffffffffff16815260200190815260200160002060006101000a81548160ff021916908315150217905550336002846040518082805190602001908083835b602083101515610ccd5780518252602082019150602081019050602083039250610ca8565b6001836020036101000a038019825116818451168082178552505050505050905001915050908152602001604051809103902060006101000a81548173ffffffffffffffffffffffffffffffffffffffff021916908373ffffffffffffffffffffffffffffffffffffffff16021790555060036000815480929190600101919050555060019050610d5e565b600090505b92915050565b60606000808473ffffffffffffffffffffffffffffffffffffffff1673ffffffffffffffffffffffffffffffffffffffff16815260200190815260200160002060030160008381526020019081526020016000208054600181600116156101000203166002900480601f016020809104026020016040519081016040528092919081815260200182805460018160011615610100020316600290048015610e4c5780601f10610e2157610100808354040283529160200191610e4c565b820191906000526020600020905b815481529060010190602001808311610e2f57829003601f168201915b5050505050905092915050565b600160003373ffffffffffffffffffffffffffffffffffffffff1673ffffffffffffffffffffffffffffffffffffffff16815260200190815260200160002060009054906101000a900460ff161515610eae57fe5b806000803373ffffffffffffffffffffffffffffffffffffffff1673ffffffffffffffffffffffffffffffffffffffff16815260200190815260200160002060030160008060003373ffffffffffffffffffffffffffffffffffffffff1673ffffffffffffffffffffffffffffffffffffffff1681526020019081526020016000206002015481526020019081526020016000209080519060200190610f55929190611830565b506000803373ffffffffffffffffffffffffffffffffffffffff1673ffffffffffffffffffffffffffffffffffffffff1681526020019081526020016000206002016000815480929190600101919050555050565b600160003373ffffffffffffffffffffffffffffffffffffffff1673ffffffffffffffffffffffffffffffffffffffff16815260200190815260200160002060009054906101000a900460ff16801561107957506004816040518082805190602001908083835b6020831015156110365780518252602082019150602081019050602083039250611011565b6001836020036101000a038019825116818451168082178552505050505050905001915050908152602001604051809103902060009054906101000a900460ff16155b1561122357600060046000803373ffffffffffffffffffffffffffffffffffffffff1673ffffffffffffffffffffffffffffffffffffffff168152602001908152602001600020600001604051808280546001816001161561010002031660029004801561111e5780601f106110fc57610100808354040283529182019161111e565b820191906000526020600020905b81548152906001019060200180831161110a575b5050915050908152602001604051809103902060006101000a81548160ff021916908315150217905550806000803373ffffffffffffffffffffffffffffffffffffffff1673ffffffffffffffffffffffffffffffffffffffff168152602001908152602001600020600001908051906020019061119d929190611830565b5060016004826040518082805190602001908083835b6020831015156111d857805182526020820191506020810190506020830392506111b3565b6001836020036101000a038019825116818451168082178552505050505050905001915050908152602001604051809103902060006101000a81548160ff0219169083151502179055505b50565b60006002826040518082805190602001908083835b602083101515611260578051825260208201915060208101905060208303925061123b565b6001836020036101000a038019825116818451168082178552505050505050905001915050908152602001604051809103902060009054906101000a900473ffffffffffffffffffffffffffffffffffffffff169050919050565b600160003373ffffffffffffffffffffffffffffffffffffffff1673ffffffffffffffffffffffffffffffffffffffff16815260200190815260200160002060009054906101000a900460ff161561136457806000803373ffffffffffffffffffffffffffffffffffffffff1673ffffffffffffffffffffffffffffffffffffffff1681526020019081526020016000206001019080519060200190611362929190611830565b505b50565b60006004826040518082805190602001908083835b6020831015156113a1578051825260208201915060208101905060208303925061137c565b6001836020036101000a038019825116818451168082178552505050505050905001915050908152602001604051809103902060009054906101000a900460ff169050919050565b600160003373ffffffffffffffffffffffffffffffffffffffff1673ffffffffffffffffffffffffffffffffffffffff16815260200190815260200160002060009054906101000a900460ff1615151561143f57fe5b6000803373ffffffffffffffffffffffffffffffffffffffff1673ffffffffffffffffffffffffffffffffffffffff168152602001908152602001600020600201548210151561148b57fe5b806000803373ffffffffffffffffffffffffffffffffffffffff1673ffffffffffffffffffffffffffffffffffffffff168152602001908152602001600020600401600084815260200190815260200160002090805190602001906114f1929190611830565b505050565b60606000808473ffffffffffffffffffffffffffffffffffffffff1673ffffffffffffffffffffffffffffffffffffffff16815260200190815260200160002060040160008381526020019081526020016000208054600181600116156101000203166002900480601f0160208091040260200160405190810160405280929190818152602001828054600181600116156101000203166002900480156115de5780601f106115b3576101008083540402835291602001916115de565b820191906000526020600020905b8154815290600101906020018083116115c157829003601f168201915b5050505050905092915050565b60016020528060005260406000206000915054906101000a900460ff1681565b6000602052806000526040600020600091509050806000018054600181600116156101000203166002900480601f0160208091040260200160405190810160405280929190818152602001828054600181600116156101000203166002900480156116b75780601f1061168c576101008083540402835291602001916116b7565b820191906000526020600020905b81548152906001019060200180831161169a57829003601f168201915b505050505090806001018054600181600116156101000203166002900480601f0160208091040260200160405190810160405280929190818152602001828054600181600116156101000203166002900480156117555780601f1061172a57610100808354040283529160200191611755565b820191906000526020600020905b81548152906001019060200180831161173857829003601f168201915b5050505050908060020154905083565b60008060008373ffffffffffffffffffffffffffffffffffffffff1673ffffffffffffffffffffffffffffffffffffffff168152602001908152602001600020600201549050919050565b828054600181600116156101000203166002900490600052602060002090601f016020900481019282601f106117f157805160ff191683800117855561181f565b8280016001018555821561181f579182015b8281111561181e578251825591602001919060010190611803565b5b50905061182c91906118b0565b5090565b828054600181600116156101000203166002900490600052602060002090601f016020900481019282601f1061187157805160ff191683800117855561189f565b8280016001018555821561189f579182015b8281111561189e578251825591602001919060010190611883565b5b5090506118ac91906118b0565b5090565b6118d291905b808211156118ce5760008160009055506001016118b6565b5090565b905600a165627a7a723058205304bbf1a6f36e265529f86ce0ba4a2251e6e44f5d647e5d5577ce60890cb8a60029",
  "source": "pragma solidity ^0.4.24;\n\ncontract StringBytes32UtilInterface{\n    function stringToBytes32Tuple(string data) public constant returns (bytes32, bytes32);\n}\n\ncontract UserContentRegister {\n\n    struct User {\n        string userName;\n        string profileMetaData;\n        uint256 numContent;\n        mapping (uint256 => string) contentIndex;\n        mapping (uint256 => string) contentLinks; //update Publication or tag info\n    }\n\n    mapping (address => User) public userIndex;\n    mapping (address => bool) public registered;\n    mapping (string => address) _userAddressLookup;\n    uint256 public numUsers;\n    mapping (string => bool) _checkUserNameTaken;\n    \n    StringBytes32UtilInterface stringBytes32Util;\n\n    constructor(address stringBytes32UtilAddress) public  {\n        stringBytes32Util = StringBytes32UtilInterface(stringBytes32UtilAddress);\n    }\n\n    function registerNewUser(string userName, string metaData) public returns (bool) {\n        if (!registered[msg.sender] && !_checkUserNameTaken[userName]) {\n            userIndex[msg.sender] = User(userName, metaData, 0);\n            _checkUserNameTaken[userName] = true;\n            registered[msg.sender] = true;\n            _userAddressLookup[userName] = msg.sender;\n            numUsers++;\n            return true;\n        }\n        return false;\n    }\n\n    function getUserAddress(string userName) public constant returns (address) {\n        return _userAddressLookup[userName];\n    }\n\n    function getNumContent(address whichUser) public constant returns (uint256) {\n        return userIndex[whichUser].numContent;\n    }\n\n    function publishContent(string content) public  {\n        assert(registered[msg.sender]);\n        userIndex[msg.sender].contentIndex[userIndex[msg.sender].numContent] = content;\n        userIndex[msg.sender].numContent++;\n    }\n\n    function updateContentLinks(uint256 contentIndex, string links) public  {\n        assert(!registered[msg.sender]);\n        assert(contentIndex < userIndex[msg.sender].numContent);\n        userIndex[msg.sender].contentLinks[contentIndex] = links;\n    }\n\n    function updateMyUserName(string newUsername) public {\n        if (registered[msg.sender] && !_checkUserNameTaken[newUsername]) {\n            _checkUserNameTaken[userIndex[msg.sender].userName] = false;\n            userIndex[msg.sender].userName = newUsername;\n            _checkUserNameTaken[newUsername] = true;\n        }\n    }\n\n    function updateMetaData(string _metaData) public {\n        if (registered[msg.sender]) {\n            userIndex[msg.sender].profileMetaData = _metaData;\n        }\n    }\n\n    function checkUserNameTaken(string username) public constant returns (bool) {\n        return _checkUserNameTaken[username];\n    }\n\n    function getUserContent(address whichUser, uint256 index) public constant returns (string content) {\n        return userIndex[whichUser].contentIndex[index];\n    }\n\n    function getUserContentBytes(address whichUser, uint256 index) public constant returns (bytes32, bytes32) {\n        return stringBytes32Util.stringToBytes32Tuple(userIndex[whichUser].contentIndex[index]);\n    }\n\n    function getContentLinks(address whichUser, uint256 index) public constant returns (string) {\n        return userIndex[whichUser].contentLinks[index];\n    }\n}\n",
  "sourcePath": "/home/cameron/CYRCUS/web-app/contracts/UserContentRegister.sol",
  "compiler": {
    "name": "solc",
    "version": "0.4.25+commit.59dbf8f1.Emscripten.clang"
  },
  "schemaVersion": "3.0.0-beta.1",
  "updatedAt": "2018-11-15T02:56:33.075Z"
}